:100000000C948B0E0C94B30E0C94B30E0C94B30E94
:100010000C94B30E0C94B30E0C94B30E0C94B30E5C
:100020000C94B30E0C94B30E0C94B30E0C94B30E4C
:100030000C94B30E0C94B30E0C94B30E0C94B30E3C
:100040000C94E11C0C94B30E0C94AF1C0C94891C02
:100050000C94B30E0C94B30E0C94B30E0C94B30E1C
:100060000C942B1D0C94B30E0401408004018040BD
:1000700002010204080002020202408040800001E6
:1000800002040204400001020408008002008B0008
:1000900086007F0076006800000000002300260034
:1000A000290000000000240027002A0000000000B2
:1000B000250028002B0004040404040404040202A4
:1000C00002020202030303030303010204081020D7
:1000D00040800102040810200102040810200000E2
:1000E00000080002010000030407000000000000F7
:1000F000000000EF293201330034013500360737A4
:1001000017380639123A003F0240FF4101422D469E
:100110000F473C4800491E4A004B204C004D1A4EE8
:10012000144F005010510052025C005D105E3F5FA2
:100130002760286100620363F7640365D96603677B
:100140000168C869406A046D006E006F80700071BC
:1001500000720073F0740075428044810482208331
:10016000208400851086008705881889108A018BF5
:10017000378C008DF08E818F069006911E920D9324
:100180000A940A950C9605970A984199149A0A9B25
:100190003F9C339DAE9EF99F48A013A110A208A3D7
:1001A00030A419A510A608A724A804A91EAA1EAB4E
:1001B00019CC0BCD13CE64CF21D00FD188D201E062
:1001C00004E141E2D6E300E40CE50AE600E700E8DA
:1001D00000E907EE01EF1E001E010F0210030204EA
:1001E0000005B00604070D080E099C0A040B050C57
:1001F0000F0D020E120F021002110012011305144E
:1002000007150516071701180419051A0C1B2A1CD7
:10021000011D001E00210022002301250026392790
:100220007F280829033000311A321A330734073582
:100230000136FF3736380739003AFF3E003F774036
:10024000404100423043A0445C45004600475848C6
:100250001E4A1E4B004C004DA04E804F00500051D6
:1002600000520053005480571059085A945BE85CC0
:10027000085D3D5E995F456040612D63026496654F
:10028000006697670168CD69016AB06B046C2C6DDC
:10029000016E326F007101723573007433753176FF
:1002A0000177847C037D017E0000000000000000D7
:1002B000000000000000000000000000000000003E
:1002C000000000000000000000000000000000002E
:1002D000000000000000000000000000000000001E
:1002E00000000000000000007080C31F0738F0030A
:1002F0003F06060000000000F0C0C3000F3C1806D7
:10030000630C030000000000F0C0C3000F3C0C0CA5
:10031000C30C030000000000B041C3001B340418EC
:10032000C398010000000800B061C3001B36061826
:10033000C398010000001800B021C3001B3206184A
:1003400063F00000000038003033C30F3333061869
:100350003FF0000000E04F003033C3003333061895
:10036000636000000060D5003012C300233106181E
:100370006360000000200001301EC300E331060866
:10038000C360000000605503301EC300E3310C0C55
:10039000C360000000200001300CC300C330180609
:1003A000836000000060D500300CC31FC330F00331
:1003B0008361000008E04F00000000000000000022
:1003C000000000001C0038000000000000000000D9
:1003D000000000003A0018000000000000000000CB
:1003E000000000007F000800000000000000000086
:1003F00000000080AE0000000000000000000000CF
:10040000000000C0FF01000000000000000000002C
:10041000000800E0FB0300000008008000007F00EF
:10042000001800007F000000001C00C000006B00EE
:10043000002800006B000000003E00E000005500B6
:10044000E05F00007F000000007B00903F006B0039
:10045000A0AA00007B00FE0080FF001831005500BC
:10046000607701007F00F600C0AE010420006B0041
:10047000A0AA02007F00AA00E0FF034624E0D50303
:10048000605D01000000D600007B000420C0AA01CE
:10049000A0AA00000000AA00007F00183580D50047
:1004A000E07F00000000D600006B00903F006B0072
:1004B0000028000000C0AB07007F00E0000036000D
:1004C0000018000000805503007B00C000001C00E5
:1004D000000800004000AB01007F00800000080021
:1004E00000000000C000F600000000000000000056
:1004F0000000000040016C0000000000000000004F
:10050000000000007F033800000000000000000031
:1005100000000000010410000000000000000000C6
:1005200000000000550D0000000000000000000069
:10053000004000000110000000000000000000006A
:1005400000E00000550D000000F0076080031CFC77
:100550000FB0010001040000001C0C6080031C0CA3
:10056000005803007F0300000006087080071E0C7F
:10057000008C060040010800000300D880071E0C14
:1005800000560D00C0001400800100C8C0061B0CFE
:1005900000AF1E0440002200800100CCC004090608
:1005A0000058030C00005500C00000C6C0840906B6
:1005B0000088021400808000C0800FC6C08C0CFE32
:1005C0000358F33700404401C0000C83C1CC0C0633
:1005D00000A8124000E0C103C0008C81C14C0C0691
:1005E000005853D500005100C00084FFC16C0C06B8
:1005F00000F81300010041008001C68061380C033F
:10060000000050D5000045008001C6806138060317
:10061000000010400000410000036700631806035B
:100620000000F0370000550000FC3100630806FFB1
:100630000300001400007F00000000000000000024
:100640000000000C0000000000000000000000009E
:100650000000000400000000000000000000000096
:10066000000000000000000000000000000000008A
:10067000000000000000000000000000000000007A
:10068000000000000000000000000000000000006A
:10069000000000000000000000000000000000005A
:1006A0000000000000000000426C6F636B696E6721
:1006B0000053484F57494E47205449544C45204316
:1006C000415244005354415254494E47204F4C45E7
:1006D0004400494E4954204552524F5200546869D3
:1006E0006E677320617265207374696C6C206F6B28
:1006F00020616674657220696E697469616C6973E2
:10070000696E672067616D650048656C6C6F2C20B1
:1007100065766572797468696E67206973206669A9
:100720006E650052454144593F00474F2100504CEF
:100730004159455220414456414E43455300504C87
:10074000415945522046494E495348454400416469
:100750006420736F6D65206D6F7265206C657665C2
:100760006C7320696E2074686520636F6465210076
:1007700054686174277320616C6C207468657265BD
:1007800020697300736F2069742773206561736932
:10079000657221004368616E676520746865206337
:1007A0006F646500596F75204C6F736521004D6F44
:1007B00076696E67206F6E20746F206C6576656C4D
:1007C000200057494E4E45522100504C4159455248
:1007D000204C4F53455200506C6179696E67206719
:1007E000616D65204C6576656C0053686F77696E46
:1007F000672067616D65204C6576656C001C00059F
:10080000050606050507202000001C001C00001D31
:1008100000000516401D144821181190FCFF0F51CF
:10082000411A50710E9314A52CA4198F88C20C1272
:1008300000412620053178055EE8032776910F8C6C
:10084000DCC47AE1031F088437128CE463179CE848
:1008500083173E00020A00422620053198061F0039
:10086000821F3AC18B7D640427C3131FF840103CDC
:100870009B5C041FB9D8041FBAE0830500431D1414
:10088000482138055388C4331AB214A524E6380524
:100890001A52A01001C9FFFF1000444820082198F7
:1008A00021D58152A3D6818E8420E42428290A529E
:1008B000888294B1A0452C68110B5A0283F01084F1
:1008C00013BBD0461EE18087401C2212968C442523
:1008D00044414A518C7214A22445288B6A12742A0E
:1008E000C200454B2008219821D58152A39612962B
:1008F000A408E628A3290A7148529C91984720E74A
:1009000011077AC251159B5C042338B98A5D2A11FC
:100910000EF408E43C2231CF488A4314E2146534D3
:1009200047114C52C2B2A82641A7220C00464A20C9
:1009300008219821D58152A3D61294C408E53443E6
:10094000290E51885392F198443C07110F3A0251F5
:1009500017ABDC04A36E62957A84071DE2398878B0
:100960004C329C92108728A519CA61849296A02CBB
:10097000AA49D0A908030047482008219821D58119
:1009800052A3962294A410E52846290A5248A2921E
:1009900091B044200E11073CC2211BBAD804430871
:1009A0000F3161418B58D02216B40C052944414ABD
:1009B0004950721084A4031D8B6A12742AC2004825
:1009C0001D165821F8200EFDFFEF58A1121389CCF7
:1009D000831AB5B0C41DB090030D14004927A005BB
:1009E0002B78055EE8032776A18D7C606E74C20BC0
:1009F0001FF840103EE18D8E20F9D0C62E38D10769
:100A00002F50004A27A0052B980A7EE8042FB6A194
:100A10008F8C906E78E20B1FF840103CD10D0E1FAA
:100A2000D9D0C526F8D0051F2C004B1D16582158CB
:100A3000057490053C5CC216D5A0C744641255B03D
:100A40000EE2D0FFFF0E004C1CDE13331878811B22
:100A50005AC18E95A82535E83991994A45AE9189B4
:100A60002D38004D2E8F9723D8054D60C322549109
:100A70000C741CC4244521CB6044133ED00447347D
:100A800083214B514C7210742443158B6043135CCB
:100A9000004E2F8F872318044E68032356A18C74B1
:100AA00020E42446290B6146239CF08126348219D8
:100AB0000B514A6290732023158A5803135AE000A1
:100AC0004F1BDE1331D8099BC8C645AA3299E83CB2
:100AD000A8498B4AD6C18A36B8E001502E1E152F80
:100AE0009808523804248AE18C81302428AA424B89
:100AF00058CC3216B294452CC74AD4921AF49CC8EA
:100B00004CA522D7C8C4161C00511D945723D809E0
:100B100091784643969216B4FEA545AD7F4A594852
:100B2000331E11050200521B9457239808917846F2
:100B30004396A2D67F6941EB5F5216D28C4744C1DF
:100B400001532E1E152FD8099BC8C645AA3299E815
:100B50003CA8498B4AD659C45216B28CC52C614167
:100B6000955202C2906138A3109038821408005444
:100B70001F200821982118FD2F5A8B6AD283A23397
:100B800099AA5C241B9BE8C2078F7EE00F105520BA
:100B900020082118FC03C4078F0A9DD84646AE5290
:100BA00099E944E8498D5A564430FA1F03005638F3
:100BB00020072918071F00821F7A51B8E1852F7876
:100BC00082A0C520E850082A1882061F9C0C2861C4
:100BD000044A948112A3A084F0C217BCC195A20F4D
:100BE0005EF800083000573A200629B80DDAC80729
:100BF00046AE910B27A8C211897006229C71088706
:100C000018A229856018238AD2088338E2188E40FA
:100C1000862312E10A25B8221B17C14736F4D000FB
:100C200058412008219860080F11904004241001B9
:100C3000094440829325211249680C219A428C86EE
:100C400014A321046946419A41944610A609898853
:100C50004222381924100109444002119040F8083A
:100C60000059501F082118075EE8032F84E1947093
:100C7000304A59A829C62944718C528C4115A420A8
:100C8000022B445102A7D8E41ED8C8C745AC528BEA
:100C900050CC62142460452986A00A63880115C8D7
:100CA00008854812139035B5E825B9D003177A6046
:100CB000005A35A0062D98061F00821F3AC18B6D81
:100CC000E82323F26994BA8E56F44C6692741C831E
:100CD00019C76805221E91063828210A4A90C112B8
:100CE0007CF001107C005B42200729382C9461C104
:100CF000619860183614022284688D2016140865E5
:100D00002529104812C4910671224298610D853040
:100D100041130C5102171C829307094440021190A1
:100D2000400424105EB2120000000004FFFF000027
:100D3000050005050606010407202000002000200C
:100D40000000310000015E40315F76C139E8C32EFA
:100D5000F27193BA4C463226588C1912638AC398A2
:100D6000A33026198C5902832C4531C941D0910CEE
:100D7000552C820D4D70410241412018C10CA90E25
:100D8000941AB5AC841DAD70A412C5A84821A85210
:100D900088A918612A5A918451244294A908A5521D
:100DA00017CACC1316F2084640C21B1CE18A76B063
:100DB000642DAA49D0A9080300424D2018C10CA9EE
:100DC0000E941AB5AC841DAD70E4108A38C641107B
:100DD0007288A318E51048210A129422944A5D28CB
:100DE000339AC9D0A5AA22142520852888388A518B
:100DF0000E7110841CE3108A380857B483256B5198
:100E00004D824E45180043511F97C1C04A951104A9
:100E100065883019852EF308843C04118F41C08306
:100E200010473047210C410E4314431C87280E22E3
:100E30000C9388A39860100831C2209261864128E3
:100E4000C2108358C221064189415062109418048F
:100E500025064189C16F00444CDF37C12598411AEE
:100E6000E2708A5794A31D23594958D21296C38819
:100E7000A53064198C5902832C4531C941D0918C1D
:100E80006CE2F3A236AD2A5D87114B61C83218B30C
:100E900004062D41518A4018420C671802124890EE
:100EA00002010000000004FFFF00005F00030303D5
:100EB00004030504060B00FE08FE09FF015C02B8EE
:100EC00003F8200500660721074243C76144220852
:100ED0001D5687844500230C3D424FCA619272988B
:100EE000A400240F5D3A57305689D06694482D18D7
:100EF00002250E454287684289896411CA48002646
:100F00000F45428F48129184449349444B0027086F
:100F1000A3568F841202280BD43E974414D22DA6D8
:100F200000290DD43E874C1613690A4944002A0C47
:100F30003D42574AC432B12485002B0B36429750AC
:100F400074280945002C08A33A8F8412022D071536
:100F50004AC761002E06124307012F0E553E674C0B
:100F60004926928964B22000300B45428F48C2174F
:100F7000C904003108444297E4A407320A454207F5
:100F8000454D96ED30330C454207454D3294512C7A
:100F900000340E4542974C348A442491924C0235D9
:100FA0000C454207851224CA281600360B45429785
:100FB000368A84453201370A4542C7619618D30400
:100FC000380E4542CF4442914C242C920900390CF2
:100FD0004542CF44C222A18994003A072A43078997
:100FE000003B09BB3A8FA28412023C083D429F4855
:100FF000A3063D082D46C7617A183E093D42875039
:101000009336003F0E454207252413C9E410990486
:1010100000400D4542CF44249A5022922201410DB6
:101020004542574C368A442EA39100420C45420754
:101030004542B148582C00430A45428F69A6538463
:1010400000440C4542C7481291F0121901450A4567
:1010500042C76946912919460A4542C769469169BE
:1010600003470A45428F69A6C22221480A454287A2
:1010700084E520E1224909C4420745A417024A0B2E
:101080004542D74C1B852299004B0D45428768424B
:10109000898C281216014C084542874C9F0C4D0E36
:1010A0004542476C72B0442411992C004E0C4542C5
:1010B000876844A1489846024F0B4542CF44C21767
:1010C000C90400500B45420745C26291A901510B6A
:1010D000553ACF44C217C95018520D4542074542F0
:1010E000B14822121601530B45428F6946A28D2C3E
:1010F0000054094642C745A84F00550A4542878417
:101100005F241300560D454287688B242299C942FB
:1011100000570F4542474C2522891C284991080059
:10112000580E45428768121A0945A3C84800590C51
:101130004642876C149284863A015A0B454287498D
:101140004D2413890C5B08D43E87493F115C0E5532
:101150003E475026940965429930005D08D43E0709
:10116000493F195E081D56576CA2005F07153EC720
:1011700061006008A3568744240A610A3542CF50B3
:1011800062A14808620B4542874C469170B10063EA
:101190000935428F69A61421640A45429F8A858BCE
:1011A0008400650B3542CF447290892204660C4559
:1011B00042D744121155649A00670A453A8F85E573
:1011C00036B200680A4542874C4691F022690ACC43
:1011D000428F483AD285006A0B5C3A97EA48A749A1
:1011E00005006B0D4542874C851219512414016C82
:1011F00008C442C7485F086D0D354207C5129144C7
:10120000241149026E0935420745C28B006F0A3529
:1012100042CF44C2453201700B453A0745C2C52250
:101220009301710A453A8F858B84A600720A354274
:10123000474512916902730935428F8D44B300749A
:101240000B4542574C549169090D75093542878405
:10125000170901760C354287681419CD642100778F
:101260000E3542474C1291442CA3480400780B35AC
:10127000428784A228915004790F453A87681491D7
:101280004466C248D208007A0935428765A43431E1
:101290007B0C553ED744A62413CA14077C07523F43
:1012A000C783017D0D553E8750A6389AC8946400C7
:1012B0007E081D564FE8140100000004FFFF0000E7
:1012C0006000040405060406061B2900F91CF91B2E
:1012D00000036C06D70A37200600405006210D8413
:1012E0005B50857FD078C41011002211A8E85B8E76
:1012F0004021861819214448181100233B8E535071
:101300002622848810224288082122A3888C1A422F
:1013100088082122241E7CB0660821228488107946
:10132000F0C10A22848810224288082122A38690D4
:101330001A428808210024286E544E2EA2B43CA5DF
:1013400086092112C430A59668A5262DAD942CD10E
:1013500073C890912044848DB2834469050025357B
:101360008E53509651240A8D383362121247C61498
:10137000213486E850A26387121D4AE950A2638790
:10138000121D4A66109132434E101931CD89412504
:10139000480D0126298E5350AE72A8142D21448485
:1013A000D410A2D412255AD01C32642486912081F4
:1013B000640412363B5A6382CD22550A270BA3D808
:1013C0005B8D1026448400281C676B50264164887E
:1013D00090214286CCA031F41F0D2243880C21328B
:1013E000848200291E68EB508E41A4488D22446AF5
:1013F000142152734568D48C281A440D2142C30429
:10140000012A188BE179A68183840C29F160C8A197
:10141000232E920C11347010002B0F6BE1721E7290
:10142000347AF0C00D398A002C09835850051342D4
:10143000022D088BE074860F1C2E0A64D85085118B
:101440002444002F1E8E5350569244A9244A2551FD
:10145000A243291D4AE9502A895249944AA25412AA
:101460000530188E53502673A8D4B028940CFFFF73
:1014700059A2126C54A1330400310F8773501E4AD5
:101480008A3C684186FEFF0F32238E53502E82A87D
:10149000D4B028448218CECE91084792284992258C
:1014A000A92C4929494A493EF86001331F8E5350FF
:1014B000861FAC244A92529294963C87B22C51FAE1
:1014C000241C2A124D1625240500341D8E5350AEBF
:1014D000A1341D4AD3A1341D4A09212284C6D09BC0
:1014E000071FAC234A3700351E8E5350863FA5A7F1
:1014F0006B98B42844821832A2748A0C59A2126CD8
:1015000054A133040036208E53502673A8D4B0283B
:10151000940C539AAE61D2A2100962F8B34425D854
:10152000A842670800371C8E5350863F43458214FB
:10153000512A89D292282D895259922895446906B8
:101540000038238E53502673A8D4B0284482183E06
:101550004B54828D22354C08912086CF129560A382
:101560000A9D210039218E53502673A8D4B02894A7
:101570000C7F46825089266C96D21419B24425D825
:10158000A8426708003A0BE3D9520513E2019B1009
:101590003B0C235A510DF410981012003C1609EA26
:1015A000523E61A3C8942144D5B06194952A466CFB
:1015B0009C003D0D4D5972861F9C07FBE083033E46
:1015C0001509EA528680C36856AAD84465CA10A293
:1015D0006A5840003F1C8E53502673A8D4B02894FC
:1015E0000C19512A0B564953FA7B08C70E160600F0
:1015F000405339D4ACCFF300DABE7C20AE64A9B23C
:10160000654A17218584C8A8342308A941B3060D6B
:101610003568A841430D1A6AD05083861A34D4A085
:10162000A1060D3568A841430D9A07871E0419E5E8
:1016300086549142E5819507561ED803910F82BECC
:1016400066040041288E53502EA2B4346877C83007
:101650001B326CC8B021A3881022428808A189D40B
:1016600030E164D890612388614600422D8E53504A
:1016700086546B983021458214096223888D203668
:10168000821409522498AC59C3845009522488E129
:101690005724983051840C00431A8E53502673A857
:1016A000D4B028940C53FAFF0C59A2126C54A133F5
:1016B000040044178E535006456B98B420950CFFD8
:1016C000FFAB072398AC51040045138E5350863F5F
:1016D000A59F2A5AB30D51FAE9830F1646118E536E
:1016E00050863FA59F2A5AB30D51FA9F02471B8E81
:1016F00053502673A8D4B028940C53FA66CFF059EF
:10170000A2124DD82C32310048108E53500662F888
:101710003F7BF00362F83F234909845B5085FFC19A
:10172000014A138E535056FAFF3F45862C51093615
:10173000AAD019024B308E53500662A848102A4195
:101740008808193A214482140952C8909D3368C30D
:1017500073C8909120458214114264E888082122C0
:10176000A44810234C0E8E535006A2F4FFFFD3075B
:101770001F2C4D218E535006629825D26809270FE1
:10178000FEA004091424500C412204891024619005
:10179000E1CF084E1F8E5350066298A54AA548A374
:1017A000356B98708282040A124878B391AE32C3C6
:1017B0008C004F188E53502673A8D4B028940CFF79
:1017C000FF59A2126C54A1330400501E8E535006D0
:1017D000648A9830215482140962F88A04A1124C58
:1017E0009828424694FE530051168E53502673A8F3
:1017F000D4B028940CFFFF59A2126C162D52522E11
:101800008E535006648A983021458254327C368249
:101810001409264C14292233880C1D8D2144841070
:101820001152434891204582D8086204531C8E53BC
:10183000502673A8D4B028940C53A2F59F12458665
:101840002C510936AAD01902540E8E5350861FAC63
:10185000224AFFFFBF0255138E53500662F8FFFF66
:1018600059A2126C54A133040056348E53500662B0
:10187000C8480C23316CC8B021A48610224288CC01
:10188000203283069119448410115243480D1946A1
:1018900062188961E8AE3368652D899202572B8EF4
:1018A00053500662F83312C3480C1B3226C8244238
:1018B00026113205892123480C19416208FF0D11B8
:1018C000424408112134090058368E53500662C82C
:1018D000480C1B4288082132830611214484D4908D
:1018E0006123886167D076C89091183664141142DC
:1018F00044084D4388082122C34610434600592C12
:101900008E53500662C8868C22428808A131148DFD
:1019100021448214096223889D3B67B24AA2541273
:10192000A59228D1A1940E250A005A228E535086E2
:101930001F2C25499424519244491225499424513D
:101940009244491225499424D1071F2C5B0F886BC0
:1019500050860F0CD1FFFFE8C103015C228D5B5064
:1019600086A124890E2549742849A22429254929BC
:10197000494A49121D4A92E850924487125D0F88E5
:101980006B50860F04D1FFFFE8C103035E0EAAE08F
:101990005E1E52665010193168005F0852404F8633
:1019A0000F0C600CC7685D064284464D3400612709
:1019B000B05290AE92C9562D2245861419528429F0
:1019C00053C4A60D0A22C4881023428C0831322F3A
:1019D0009E38322400621A8E535006A2F4A9A23512
:1019E0004C5A144A86FF59A2072398AC510400634D
:1019F00019AE52502673A8D4B028940C53FA19B2D9
:101A00004425D8A84267080064178E535056FA91AF
:101A10009A252C1E0C4A86FF59A2124DD82C5265CD
:101A20001CAE52502673A8D4B028940CB3073F20A4
:101A30004AB330854AB05185CE100066168E535099
:101A4000B682C752291A4329DD31E11551FA7F07C1
:101A50000067248ED34C26354B583C18940C67896C
:101A60004AB0518519514ACFA961F16018660F46F5
:101A7000B05185060068138E535006A2F4A9A23512
:101A80004C5A144A86FF3F236912865B700D31D38E
:101A9000032642FF7F62A20899016A156BE44C4657
:101AA00081D3C38EFEFFBF433342499A5384006BF8
:101AB0002C8E535006A2F433542448912044840CB5
:101AC0009D1022428804A954C852A552A4A808997E
:101AD00022640811214582140962046C0F87537037
:101AE0000532F4FFFF9B1346CA106D35B8529007BC
:101AF000558596247980E2812353C8C81D23778CAD
:101B0000DC3172C7C81D23778CDC3172C7C81D2336
:101B1000778CDC3172C7C81D23778CDC3172036E81
:101B200011AE525006456B98B428940CFF7F4600C6
:101B30006F17AE52502673A8D4B028940CFFB3444C
:101B400025D8A842670800701A8ED34C06456B98BA
:101B5000B428940CFFB3440F463059A388287D0A5B
:101B60000071178ED34C26354B583C18940CFFB39C
:101B700044259AB059A4947E720DAB52D0851F10A3
:101B80004147FFBF037323AD5210A66288D4AC2037
:101B90004482D40852480BA64A8692E80852A846C6
:101BA0001022B24411BA42007414894B701552F4D9
:101BB000CD83074648D1FFD51943A5087511AE520C
:101BC000500662F8FFB344259AB059A4007627AEB8
:101BD000525006629891183664D810424408112178
:101BE0004466D08C881022428808A921C3860CC381
:101BF0009D418B00774DB952900762E490911B4153
:101C0000ACD89061A5880C2B4584902922844C8DFA
:101C1000217468A23384069D214484C41842444838
:101C20008C194584049161438690203664080962CA
:101C3000684610433362DCA183860E1A3A68CA10E4
:101C4000007829AE5250066224860D214466D020C9
:101C500022A4860C4367D024512A0D9A433664147B
:101C60001142D31022326C04310279318ED34C0EE2
:101C700052444611194584D0184263281A43680C0F
:101C80002122A3888C22416C04B111C4CE5D68610D
:101C9000C94A290B330C552A8404017A17AE5250D5
:101CA000861FAC245992CA8225A92C496549920FF6
:101CB0003E587B1E0A644EBE51850C1522463F1BC2
:101CC00046A8143162E5C88D2346BF2B65AADC0007
:101CD0007C09647C4E86FF07057D1F0A644E867171
:101CE000C44A1923378E187D37CE1845A586D1CF23
:101CF000861132548AD838007E0EAF505486416522
:101D00009A78334A08007F0600405006000000041D
:101D1000FFFF00004A1E11241FBECFEFD8E0DEBF38
:101D2000CDBF12E0A0E0B1E0EEE2FAE402C005901F
:101D30000D92A631B107D9F727E0A6E1B2E001C0C4
:101D40001D92A73AB207E1F71EE0CBE8DEE004C03F
:101D50002197FE010E94E323CA38D107C9F70E94E8
:101D6000831E0C9415250C940000982F2091F906E1
:101D700081E0213208F043C08091D5068111FCCF6B
:101D80008091F80632E03093D5069093D4069FEF09
:101D90009093D3061092D2062093D106A8EDB6E018
:101DA000E1EBF6E090E0291331C01092B00690917B
:101DB000B006880F892B8093B0068091AF068130E2
:101DC00049F51092AF068091B0068093BB008091D8
:101DD000BC0083FDF8CF85EC8093BC008091D506D4
:101DE0008230E1F38091D3068F3FB1F08091D3062A
:101DF0008032A1F08091D306803391F084E010927C
:101E0000D7061092F9061092D60608953D913193A7
:101E10009F5FC9CF85EEE0CF80E0F1CF82E0EFCFCA
:101E200083E0EDCF8091AE069091AD06891B990BB2
:101E300008959B01DC011896ED91FC9141E067E16A
:101E40000994662329F06A3019F0862F90E00895EE
:101E50008FEF9FEF0895CF92DF92EF92FF920F9353
:101E60001F93CF93DF93EC01842F8770E1E0F0E0C4
:101E7000082E01C0EE0F0A94EAF73E2F7E0199E783
:101E8000E90EF11CD7019C9110E0923018F41E2F3E
:101E9000913029F150E0487FE8ADF9ADC880D98094
:101EA000D60150969C91949F6001959FD00C11246F
:101EB0006C0D7D2D711DDF01A60FB71F011115C01F
:101EC0008C91812B83278D932150D1F7DF91CF9176
:101ED0001F910F91FF90EF90DF90CF90089530E029
:101EE000D9CF110F330F222389F39C91912B932784
:101EF0009C938F5F877021508111F3CF9CADA90F08
:101F0000B11DF7019081923028F4913009F031E051
:101F100011E0E9CF31E0E7CF80E0089580E0089557
:101F200008950895DC01ED91FC910190F081E02D80
:101F30000994EF92FF920F931F93CF93DF938C013D
:101F40007B01D0E0C0E0F701EC0FFD1F6491662338
:101F500061F0D801ED91FC910190F081E02DC80174
:101F60000995892B11F02196EECFCE01DF91CF910B
:101F70001F910F91FF90EF900895AF92BF92CF9273
:101F8000DF92EF92FF920F931F93CF93DF936C0139
:101F90007B018B01040F151FEB015E01AE18BF081A
:101FA000C017D10759F06991D601ED91FC910190CC
:101FB000F081E02DC6010995892B79F7C501DF91E4
:101FC000CF911F910F91FF90EF90DF90CF90BF9036
:101FD000AF900895FC01538D448D252F30E0842F60
:101FE00090E0821B930B541710F0CF960895019741
:101FF0000895FC01918D828D981761F0A28DAE0F2E
:10200000BF2FB11D5D968C91928D9F5F9F73928FB4
:1020100090E008958FEF9FEF0895FC01918D828DE0
:10202000981731F0828DE80FF11D858D90E00895AD
:102030008FEF9FEF0895FC01918D228D892F90E005
:10204000805C9F4F821B91098F73992708958AEFB7
:1020500096E00E941B1021E0892B09F420E0822FDA
:10206000089580E090E0892B29F00E9427108111CB
:102070000C9400000895FC01A48DA80FB92FB11D88
:10208000A35ABF4F2C91848D90E001968F739927AE
:10209000848FA689B7892C93A089B1898C9183708C
:1020A00080648C93938D848D981306C00288F38985
:1020B000E02D80818F7D80830895EF92FF920F93B2
:1020C0001F93CF93DF93EC0181E0888F9B8D8C8DE4
:1020D00098131AC0E889F989808185FF15C09FB7D8
:1020E000F894EE89FF896083E889F989808183709B
:1020F000806480839FBF81E090E0DF91CF911F914A
:102100000F91FF90EF900895F62E0B8D10E00F5F6A
:102110001F4F0F731127E02E8C8D8E110CC00FB640
:1021200007FCFACFE889F989808185FFF5CFCE01D8
:102130000E943B10F1CFEB8DEC0FFD2FF11DE35A08
:10214000FF4FF0829FB7F8940B8FEA89FB8980815B
:102150008062CFCFCF93DF93EC01888D8823B9F0D5
:10216000AA89BB89E889F9898C9185FD03C08081A2
:1021700086FD0DC00FB607FCF7CF8C9185FFF2CF1F
:10218000808185FFEDCFCE010E943B10E9CFDF912A
:10219000CF910895833081F028F4813099F0823016
:1021A000A9F008958730A9F08830C9F08430B1F4DF
:1021B000809180008F7D03C0809180008F77809315
:1021C0008000089584B58F7784BD089584B58F7D90
:1021D000FBCF8091B0008F778093B00008958091FD
:1021E000B0008F7DF9CF1F93CF93DF93282F30E07E
:1021F000F901E252FF4F8491F901E653FF4FD49168
:10220000F901EA54FF4FC491CC23A9F0162F811194
:102210000E94CA10EC2FF0E0EE0FFF1FE455FF4FB5
:10222000A591B4918FB7F894EC91111108C0D09595
:10223000DE23DC938FBFDF91CF911F910895DE2BBA
:10224000F8CFCF93DF9390E0FC01E653FF4F24914A
:102250008A549F4FFC0184918823D1F090E0880F2D
:10226000991FFC01EE55FF4FA591B491FC01E45577
:10227000FF4FC591D491623071F49FB7F8943C91AF
:10228000822F809583238C93E8812E2B28839FBFF8
:10229000DF91CF9108958FB7F894EC912E2B2C936A
:1022A0008FBFF6CF3FB7F89480918302909184025C
:1022B000A0918502B091860226B5A89B05C02F3F4C
:1022C00019F00196A11DB11D3FBFBA2FA92F982F5C
:1022D0008827BC01CD01620F711D811D911D42E057
:1022E000660F771F881F991F4A95D1F708958F921F
:1022F0009F92AF92BF92CF92DF92EF92FF926B01CB
:102300007C010E9452114B015C01C114D104E10413
:10231000F104B9F00E945211681979098A099B09E0
:10232000683E73408105910580F321E0C21AD1080F
:10233000E108F10888EE880E83E0981EA11CB11C0C
:10234000E4CFFF90EF90DF90CF90BF90AF909F9041
:102350008F90089585ED8093BC008091BC0084FD32
:10236000FCCF1092D506089520915B02260F3327EB
:10237000331F21323105ECF42091D506FC0190E0A9
:1023800080E0243069F082E00895A0915B02219101
:10239000AC01455C5D4FA40FB52FB11D2C93019688
:1023A000861798F380915B02680F60935B0280E070
:1023B000089581E008950895E091AD068091AE06FC
:1023C000E81730F4F0E0E357F94F808190E008958A
:1023D0008FEF9FEF08959091AD068091AE062FEF9D
:1023E0003FEF981748F4E92FF0E0E357F94F2081C9
:1023F00030E09F5F9093AD06C9010895CF92DF92C0
:10240000EF92FF920F931F93CF93DF937C01CB0149
:102410008A012091D606222389F0EB016B01C40EBC
:10242000D51ECC15DD0569F06991D701ED91FC91C0
:102430000190F081E02DC7010995F3CF642F0E9430
:10244000B411C801DF91CF911F910F91FF90EF90D0
:10245000DF90CF900895CF93DF931F92CDB7DEB773
:1024600069832091D6062223F9F02091F9062032C3
:1024700058F021E030E0FC013383228390E080E0DB
:102480000F90DF91CF9108958091D706E82FF0E06B
:10249000E852F94F998190838F5F8093D70680939C
:1024A000F90681E090E0ECCF61E0CE0101960E9458
:1024B000B411F7CFDC011A96ED91FC9130E020E0E9
:1024C0000994DC011496ED91FC9130E020E040E0AD
:1024D00060E10994DC011696ED91FC9130E020E07A
:1024E00040E069E10994DC011696ED91FC9130E041
:1024F00020E040E068E109949A01DC011696ED9134
:10250000FC91462F67E10994EF92FF920F931F937E
:10251000CF93DF931F92CDB7DEB77C018B01D8013B
:102520006C91673129F150F46531A0F40F90DF917F
:10253000CF911F910F91FF90EF9008956A3118F19C
:102540006E3FA1F7F8014181498369E2C7010E940A
:102550005A120BC0F80141814983D7011696ED91BB
:10256000FC9130E020E0C70109950E5F1F4FD7CFE7
:10257000F80181818983AE014F5F5F4F61E0C70140
:102580000E947C12F2CF0F5F1F4FD7011696ED917C
:10259000FC9130E020E040E0C7010995C0CF462F14
:1025A000DC011696ED91FC9130E020E066E10994A3
:1025B000462FDC011696ED91FC9130E020E065E1BC
:1025C0000994EF92FF920F931F93CF93DF93EC0147
:1025D000042F79016D3009F446C050F46B30C9F115
:1025E000693009F49FC06A3009F465C080E05CC0BE
:1025F0006E3009F44BC06F3099F70E947312F701E7
:102600001381110F110F110F6C89160F60E4CE01A9
:102610000E94D812612F62956F706061CE010E9496
:10262000D812612F6F70CE010E94CF12F701648122
:10263000606BCE010E94CF12F7014081518162810F
:10264000660F660F660FCE010E947C120150A1F743
:1026500027C06CE171E0442311F067E171E0CE0125
:102660000E94841220C0411109C060E171E00E9403
:102670008412E881F98182898C8B15C069E071E050
:102680000E948412E881F9818389F6CF0E94731237
:1026900061E8CE010E94D812602FCE010E94CF12B5
:1026A000CE010E946A1281E0DF91CF911F910F91BC
:1026B000FF90EF900895EA85FB8530E020E040E050
:1026C00068E2CE010995EE81FF8130E020E040E034
:1026D00064E1CE01099541E06BE4CE010E945A12FB
:1026E000E881F981448169E2CE010E945A1240E0FA
:1026F0006BE4CE010E945A12E881F981448169E2BB
:10270000CE010E945A1241E06BE4CE010E945A129F
:10271000E881F981458169E2CE010E945A1261E2A5
:1027200071E09DCF86E591E09983888382E0A4CF14
:10273000CF93DF931F92CDB7DEB76983BE016F5F82
:102740007F4F0E94190F0F90DF91CF910895462F70
:10275000DC011896ED91FC9130E020E060E20994F4
:10276000EF92FF920F931F93CF93DF938C01C62FAD
:10277000D42F7901673130F46531B8F4643131F028
:1027800080E01BC0673101F16A31D0F7D80118969B
:10279000ED91FC9197014D2F6C2FC801DF91CF91E6
:1027A0001F910F91FF90EF90099460E00E94A71392
:1027B0006D2FC8010E94981381E0DF91CF911F9186
:1027C0000F91FF90EF90089561E00E94A713DECF74
:1027D0000F93DC01DE963C91DE97431BD496ED917E
:1027E000FC9109950F910895CF93DF93FC01A0818F
:1027F000B18182AD982F990F990F990F95AF50968F
:102800009C915097903208F09FE1990F990F990F82
:1028100094AF23AD922F990F990F990F96AF5196C0
:102820003C915197682F620F7727771F361717064D
:1028300014F4832F821B97AFEF01C05CDF4F880F2A
:10284000880F880F890F8883219680EF888354969C
:102850008D919C915597813F910508F48883EE5B9B
:10286000FF4F56968C918083DF91CF9108950F93FF
:10287000FC01EB5BFF4F308131965081451730F4FE
:10288000301738F0041728F080E013C03017D0F369
:10289000FBCFFC01ED5BFF4F30818C5B9F4FFC0158
:1028A0008081681740F481E0321718F081E0261724
:1028B00058F70F9108953217C8F3E6CF2F923F9241
:1028C0004F925F926F927F928F929F92AF92BF9240
:1028D000CF92DF92EF92FF920F931F93CF93DF93EC
:1028E000EC014C0183E4880E911CF40110823297B4
:1028F00020805E01F4E4AF0EB11CF50120823FACF4
:102900006E01F5E4CF0ED11CF60130823597408080
:102910007E01F6E4EF0EF11CF7014082349610813F
:10292000329760803196708032975080012F262D2B
:10293000472D652DCE010E943714CD58DF4F8111F0
:1029400014C01882DF91CF911F910F91FF90EF90EB
:10295000DF90CF90BF90AF909F908F907F906F90BF
:102960005F904F903F902F90089581E0888355208D
:1029700011F0F4015082621410F4F50160823714F2
:1029800010F4F60170821415E8F6F7011083DACF1F
:102990000F93DC01802FFD01ED58FF4F90819923AB
:1029A000E9F12223D9F1223020F0023079F56F5F6E
:1029B000621B082F0170FD0180FD32C0EB5BFF4FF1
:1029C0008081481758F131968081481738F5329741
:1029D000908131978081260F2617F0F46917D8F47B
:1029E0002FEF290F8217D0F4681708F4682F2917E2
:1029F00008F4922F961BD696ED91FC91D797048000
:102A0000F581E02D292FCD01099508C0033089F605
:102A10004F5F421BCECF682F691720F30F910895A7
:102A2000ED5BFF4F80816817C8F33196808168178E
:102A3000A8F73296908131978081240F241778F47B
:102A4000491760F42FEF290F821740F7481708F451
:102A5000482F291708F4922F941BCDCF482F4917E0
:102A6000E8F6F2CFEF92FF920F93CF93DF937C01C2
:102A7000D62F08E0262F40E060E00E94371488231C
:102A800059F0C0E000E02D2F4C2F60E0C7010E94FC
:102A9000C814CF5FC830B1F7DF91CF910F91FF908D
:102AA000EF900895213039F020F0223031F0840F7A
:102AB0000895860F0895841B0895861B089521307C
:102AC00039F020F0223031F0861B0895840F0895EC
:102AD000860F0895841B08955F926F927F928F9264
:102AE0009F92AF92BF92CF92DF92EF92FF920F939D
:102AF0001F93CF93DF935C01162F642EEC01C15B13
:102B0000DF4FDC80ED804C0189E7880E911CFE8050
:102B1000FD18C12EF11608F4CF2C5B800C85202FF8
:102B20004E2D6D2D8A810E945215782E202F4E2D0C
:102B30006D2D852D0E945F15482F662071F08A85C6
:102B4000F40180832C2D672DC5010E94C8141F1528
:102B500048F01F19E394D12CDACF89858111F7CF82
:102B60008B85EECF1D0D1C83ED82DF91CF911F91E0
:102B70000F91FF90EF90DF90CF90BF90AF909F901C
:102B80008F907F906F905F900895DC0118964C9124
:102B90001897ED91FC911197249130E0042E02C01A
:102BA000359527950A94E2F7842F860F883068F0D0
:102BB00031961196FC93EE93E49198E0941B01C03A
:102BC000EE0F9A95EAF72E2B885018968C938FEF7C
:102BD0009FEF01C0880F6A95EAF7809582230895D8
:102BE000FC01E60FF11D849190E0982F8827319623
:102BF000E4918E0F911D0895CF92DF92EF92FF9294
:102C00000F931F93CF93DF936C012BE4C20ED11C63
:102C1000D6012D913C9111972617370709F4A2C0D0
:102C2000EB017C016D937C93FB0184918701045A35
:102C30001F4FD8018C933196E4911196EC93119724
:102C4000FB013296E4911296EC931297FB013396B6
:102C5000E4911396EC931397FB013496E491149648
:102C6000EC931497FB013596E4911596EC93159728
:102C7000FB013696E4911696EC931697FB01379676
:102C8000E4911796EC931797FB013896E491189608
:102C9000EC931897FB013996E4911996EC931997E8
:102CA000FB013A96E4911A96EC931A97FB013B9636
:102CB000E4911B96EC931B97FB013C96E4911C96C8
:102CC000EC931C97FB013D96E4911D96EC931D97A8
:102CD000FB013E96E4911E96EC931E97FB013F96F6
:102CE000E4911F96EC931F97FB017096E491509628
:102CF000EC9361E1CE010E94F015F801928B818B7B
:102D000063E1CE010E94F015D80154969C938E93F6
:102D1000539765E1CE010E94F015F801968B858BE3
:102D2000D6018D919C911197892BE1F03D96808180
:102D3000E701CB58DF4F8883319640819B964C93B7
:102D40003A969081992371F09130A9F43997908146
:102D500089170CF49883F701E459FF4F8081841799
:102D60000CF48C93DF91CF911F910F91FF90EF9016
:102D7000DF90CF900895F701EA59FF4F30813296E6
:102D80002081082E000C990B622F022E000C770B6D
:102D9000630F711D37FD7A958617970714F4320F6C
:102DA00038832417FCF62C93DDCFCF93DF93EC010F
:102DB0006BAFEEA9FFA90190F081E02D0995EEA976
:102DC000FFA90280F381E02DCE01DF91CF9109941C
:102DD000AF92BF92CF92DF92EF92FF920F931F9329
:102DE000CF93DF9300D000D01F92CDB7DEB78C0118
:102DF000DC01DA96AC90DA97DB96EC90DB97ED91FC
:102E0000FC91B188FE2CD12CC12CD801ED91FC9104
:102E100011978089D8962D913C911C82FD828B83DD
:102E2000B8E08B9FC00111248C9DA0018D9D500D99
:102E30009C9D500D1124240F351F3A832983D801FE
:102E40001496ED91FC919E012F5F3F4F41E06FE0A2
:102E5000C8010995F3948F2D8E198A1528F4BFEFB8
:102E6000CB1ADB0AFB1488F20F900F900F900F9093
:102E70000F90DF91CF911F910F91FF90EF90DF9016
:102E8000CF90BF90AF900895CF93DF93EC010E9455
:102E9000E816CE01DF91CF910C9461120F931F932E
:102EA000CF93DF93EC01862F642F8C3208F03AC069
:102EB0008A3208F060C0883209F44BC0893209F4C4
:102EC00060C0803408F475C0982F9F73FE01E90F2D
:102ED000F11D868D8F3F09F44EC0903108F436C045
:102EE000282F30E0F901E252FF4F8491F901E653B7
:102EF000FF4F0491F901EA54FF4F1491112379F027
:102F000081110E94CA10E12FF0E0EE0FFF1FE8567A
:102F1000FF4FA591B491EC910E2381E009F480E07C
:102F2000898F29C08D3299F108F4CBCF94EB980F9B
:102F3000923008F0C6CF8F73C80FD11D8E8D41110E
:102F400034C061E00E94211160E08E8D0E94F31078
:102F500012C08E01025E1F4FD0E0F80181918F01F7
:102F60008F3F31F061E0D03108F062E00E94211122
:102F7000DF5FD63191F781E0DF91CF911F910F9103
:102F8000089570E090E080E00E947711F4CF85E032
:102F900090E0433010F082E090E0880F991F880F96
:102FA000991F05970197F1F7E6CF62E00E94211182
:102FB000E2CF80E0E1CFCF92DF92EF92FF920F93CA
:102FC0001F93CF93DF936C01EB017B01E40EF51EA1
:102FD00010E000E0CE15DF0561F06991D601ED91BA
:102FE000FC910190F081E02DC6010995080F191F91
:102FF000F1CFC801DF91CF911F910F91FF90EF901A
:10300000DF90CF9008952F923F924F925F926F92F0
:103010007F928F929F92AF92BF92CF92DF92EF9268
:10302000FF920F931F93CF93DF9300D000D000D077
:10303000CDB7DEB77C016C0124E0C20ED11CFC01CF
:10304000E158FF4F0190F081E02DC60109958C01F8
:103050008E3F9F4F08F05BC0370182E8680E711CFD
:10306000F301F081FB83470121E8820E911CF401FA
:10307000F081FD839701215A3F4F3A832983F9015B
:103080008081813009F46AC008F45CC0823009F4A0
:1030900071C0833009F47AC0F701EB5AFF4F2D81DC
:1030A000208331963B813083379780819181479689
:1030B0009C838B830F3F110511F008F015C1B49666
:1030C0000136110530F40134110558F0F701EF58BD
:1030D000FF4F808191812B813C81280F391F3C83D8
:1030E0002B838B819C810196FC01249121115AC074
:1030F000412CE981FA818081813009F492C108F480
:103100008BC1823009F48FC1833009F491C181E011
:1031100090E026960FB6F894DEBF0FBECDBFDF91CC
:10312000CF911F910F91FF90EF90DF90CF90BF90C4
:10313000AF909F908F907F906F905F904F903F9057
:103140002F900895F701EF5AFF4F0190F081E02D85
:10315000C6010995FB81F80FFB839ECFF701EF5A5B
:10316000FF4F0190F081E02DC60109952D81281BAC
:103170002D8392CFF701EF5AFF4F0190F081E02DA0
:10318000C60109953B81381B3B8386CFF701EF5A77
:10319000FF4F0190F081E02DC60109959D81980FA8
:1031A0009D837ACFEB81FC8124912017110609F0D1
:1031B00094C0CF010296009709F49ACFF701ED5A17
:1031C000FF4FFE83ED83918380831086719660812B
:1031D0008D819E810E94C515ED81FE818683F70158
:1031E000EB59FF4F60818D819E810E94C515582E3D
:1031F000ED81FE818783970123583F4F3C832B83CA
:10320000F9019081ED81FE81928781E0911180E04A
:10321000ED81FE818387F701EA59FF4FB0806B2D66
:103220008D819E810E94C515382EF701E959FF4F07
:103230002080622D8D819E810E94C515182FF70177
:10324000E859FF4F0081602F8D819E810E94C51536
:10325000015021E030E0A90101C0440F0A95EAF7CE
:10326000482E441AED81FE81068110160CF041CFE4
:10327000BA94C90101C0880FBA94EAF7381AB48425
:10328000150D2A9401C0220F2A94EAF7A22EA11A42
:103290002B2D4A2D632D82810E945215182FED810E
:1032A000FE8182832B2D4A2D632D83810E945F1521
:1032B000ED81FE818383F1E0BF1609F493C0BF1650
:1032C00008F450C022E0B21609F492C033E0B316FD
:1032D00009F499C0082F212F49C0FC0184912B814A
:1032E0003C81280F311DFBCEF701EB58FF4F808149
:1032F0009181EB81FC81E80FF91FFC83EB835F0177
:1033000060E0C5010E94F0152B813C81280F391F18
:103310003C832B8362E0C5010E94F01534E0A30ECC
:10332000B11C8017910760F3EB81FC81849190E0E0
:10333000982F88273196E4918E2B009709F4D8CEE8
:103340000817190721F48B819C81039634CFEB81F8
:10335000FC813296E4912B813C812E0F311D3C8300
:103360002B83E2CF202F210F082F050D482F612F2F
:10337000C6010E943714882309F4BBCEED81FE817B
:10338000148215825701F2E6AF0EB11C23E6E20E5D
:10339000F11CF50160818D819E810E94C515082F69
:1033A000F70160818D819E810E94C515182F40E034
:1033B000602FC6010E946C1541E0612FC6010E947A
:1033C0006C1561E08D819E810E94C5158111EFCF42
:1033D000ED81FE8185818515E4F28285EB81FC819A
:1033E000808387CEB51821E0210F080F1B0DBECFBB
:1033F00091E0392F301B21E0210F951901E0080FD2
:10340000890F130FB3CF212F250D982F901B01E0AB
:10341000080F81E0890FAACFF4018081480E408215
:1034200076CEF301FACFF4018081841980836FCEC8
:10343000F301FACF089590E080E00895FC01019037
:103440000020E9F73197AF01481B590BBC018AEF07
:1034500096E00C94BD0F8F929F92AF92BF920F9304
:103460001F93CF93DF93CDB7DEB7A1970FB6F89434
:10347000DEBF0FBECDBF19A2423008F44AE08E0174
:103480000F5D1F4F842E912CB12CA12CA50194010E
:103490000E94C123E62FB901CA01EA30F4F4E05DCD
:1034A000D801EE938D01232B242B252B79F790E067
:1034B00080E0109719F0CD010E941E1AA1960FB658
:1034C000F894DEBF0FBECDBFDF91CF911F910F915A
:1034D000BF90AF909F908F900895E95CE1CFCF931C
:1034E000DF93BC018AEF96E00E94990FEC0184EA19
:1034F00091E00E941E1A8C0F9D1FDF91CF910895BD
:10350000CF93DF930E941E1AEC0184EA91E00E949F
:103510001E1A8C0F9D1FDF91CF910895CF93C62F58
:1035200091E09093D60693E79093F8061092D70611
:103530001092F906682F87E997E00E942B126C2FF2
:1035400087E997E00E942B1281E00E94B50EC82FF8
:10355000882321F087EA91E00E941E1A8C2FCF91D8
:1035600008950F931F93CF93DF938B0191E0909376
:10357000D60693E79093F8061092D7061092F906B4
:10358000682F87E997E00E942B1281E00E94B50E18
:10359000D82F882351F087EA91E00E941E1A8D2FC0
:1035A000DF91CF911F910F9108958091D5068111E0
:1035B000FCCF81E08093D5068093D4069FEF909353
:1035C000D3061092D2061092D1068093B006809155
:1035D000B006866E8093B0068091AF06813079F593
:1035E0001092AF068091B0068093BB008091BC0022
:1035F00083FDF8CF85EC8093BC008091D5068130A7
:10360000E1F38091D20681111CC08091D206A1EB1A
:10361000B6E0EDE8F6E0C0E0C81315C01092AD06C4
:10362000C093AE068091AD06C81709F4B8CF87E9FC
:1036300097E00E94EB11F80181938F01F3CF85EEA3
:10364000DACF81E0E4CF9D919193CF5FE5CFFC018C
:10365000A081B18150962C9182AD38E0839FC0014A
:103660001124289FA001299F500D112470E060E0D3
:1036700080AD91AD0C940E251F93CF93DF93EC0199
:103680000E94E8161BAD8AAD180FE881F981818987
:10369000181740F0CE010E94611280E0DF91CF91B7
:1036A0001F910895FE01E658FF4F8081882319F08D
:1036B000CE010E94271B612FCE010E94D51681E00A
:1036C000EDCFCF93DF93EC01FC01E658FF4F8081F3
:1036D000882319F0CE010E94271B60E0CE01DF9104
:1036E000CF910C94D5160F931F93CF938C01C62FB7
:1036F000FC018681978104960E94271BF801868130
:1037000097816DEF77E004960E94FC15F8018681A1
:103710009781FC01EF57FF4F20E3208331962083F0
:10372000C430D9F070F4C130A1F061E4C23091F03E
:10373000F801868197810496CF911F910F910C9487
:103740004417C03461F0C03861F0C83089F760E4D4
:1037500001C062E40E94920FEBCF63E4FBCF68E507
:10376000F9CF67E5F7CF0F931F93CF93DF93EC016A
:10377000683109F46EC058F46431F9F0F901673129
:1037800081F080E0DF91CF911F910F910895693111
:1037900009F49CC06032A9F76AE4CE010E945A1273
:1037A00056C0442309F453C081918EBD00000DB46E
:1037B00007FEFDCF8EB54150F4CFE881F9818C85AD
:1037C0009D85AE85BF85892B8A2B8B2B41F4808507
:1037D0009185A285B3858C879D87AE87BF87418100
:1037E00069E4CE010E945A12CFB7F89480913A0250
:1037F000811127C0E0ECF0E08491E4EDF0E09491D9
:10380000E82FF0E0EE0FFF1FEE55FF4FA591B491AA
:10381000EC91E92321F461E08AE00E94F31061E079
:103820008AE00E9421118CB580618CBD8CB58064CA
:103830008CBD61E08DE00E94211161E08BE00E946F
:10384000211180913A028F5F80933A02CFBF81E0CD
:1038500099CFE881F981E485E15090E0E33020F4EC
:10386000F0E0EA5FFE4F90810C851D852E853F8537
:1038700040E052E16AE770E080E004171507260790
:10388000370740F476956795579547958F5F863053
:10389000A1F787E09C709065282F2695922B809544
:1038A00081709CBD8DBDE881F981408169E4CE01C4
:1038B0000E945A12A881B981EA85FB8530E020E098
:1038C00012964C916CE2CE010995C1CFA881B981C5
:1038D000EA85FB8530E020E013964C916CE2099577
:1038E000E881F981418169E458CFCF93DF93EC01FE
:1038F000E881F0E0EE0FFF1FE257FF4F849190E068
:103900009B838A830E94B8239D838C83DF91CF9110
:1039100008951F920F920FB60F9211242F933F9389
:103920004F935F936F937F938F939F93AF93BF93C7
:10393000EF93FF938AEF96E00E943B10FF91EF9187
:10394000BF91AF919F918F917F916F915F914F91B7
:103950003F912F910F900FBE0F901F9018951F92BF
:103960000F920FB60F9211242F938F939F93EF9383
:10397000FF93E0910A07F0910B078081E091100717
:10398000F091110782FD1BC09081809113078F5F1A
:103990008F7320911407821741F0E0911307F0E034
:1039A000E650F94F958F80931307FF91EF919F9108
:1039B0008F912F910F900FBE0F901F9018958081BF
:1039C000F4CF1F920F920FB60F9211242F933F93B3
:1039D0008F939F93AF93BF9380917F0290918002CA
:1039E000A0918102B091820230917E0223E0230FE8
:1039F0002D3758F50196A11DB11D20937E028093AD
:103A00007F0290938002A0938102B0938202809102
:103A1000830290918402A0918502B0918602019662
:103A2000A11DB11D8093830290938402A09385020F
:103A3000B0938602BF91AF919F918F913F912F914B
:103A40000F900FBE0F901F90189526E8230F029637
:103A5000A11DB11DD2CF1F920F920FB60F9211244C
:103A60002F933F934F935F936F937F938F939F9386
:103A7000AF93BF93EF93FF938091B900887F803617
:103A800009F44AC0F0F5883209F4A7C018F580316E
:103A900009F49BC0B8F4882309F4F9C0883009F40C
:103AA00094C0FF91EF91BF91AF919F918F917F91C2
:103AB0006F915F914F913F912F910F900FBE0F909B
:103AC0001F901895883109F488C0803251F780938F
:103AD000D30614C0803409F49DC040F48033B9F398
:103AE0008833F9F68093D30685ECB0C0803509F4AD
:103AF00085C0883509F496C0883499F60E94AA11C9
:103B0000D0CF883909F48CC038F5883729F050F4C3
:103B1000883611F0803729F683E08093D50610921D
:103B20007D0257C0883809F47BC0803919F080388D
:103B300009F0B7CF80917D02803208F071C0E0912A
:103B40007D0281E08E0F80937D028091BB00F0E0CA
:103B5000E35AFD4F80833DC0803B39F0E0F4803A6A
:103B600009F479C0883A09F09CCF84E08093D506A7
:103B700010925C0210925B02E0918902F0918A023D
:103B8000099580915B0281110FC081E080935B02F7
:103B900010923B0209C0803C09F4A6CF883C09F48E
:103BA000A3CF883B09F07DCFE0915C0281E08E0FCE
:103BB00080935C02F0E0E55CFD4F80818093BB0068
:103BC00090915C0280915B0229C08091B006809345
:103BD000BB0085EC8093BC0064CF9091D2068091AD
:103BE000D106981758F5E091D20681E08E0F8093A8
:103BF000D206F0E0EF54F94F8081E9CFE091D20690
:103C000081E08E0F8093D2068091BB00F0E0EF54EC
:103C1000F94F80839091D2068091D1069817C8F20F
:103C200085E8D8CFE091D20681E08E0F8093D2064E
:103C30008091BB00F0E0EF54F94F80838091D4066F
:103C400081115CCF81E08093AF0684EA8093BC0051
:103C50001092D50626CF85EC8093BC001092D50635
:103C600080917D02803230F4E0917D02F0E0E35AF1
:103C7000FD4F108260917D0270E0E0918702F0912B
:103C800088028DE592E0099510927D020ACF10928C
:103C9000D30634CFEAEFF6E01382128288EE93E087
:103CA000A0E0B0E084839583A683B78324E831E065
:103CB0003183208325EC30E03587248724EC30E005
:103CC0003787268720EC30E0318B208B21EC30E0E9
:103CD000338B228B22EC30E0358B248B26EC30E0CA
:103CE000378B268B118E128E138E148EE7E9F7E038
:103CF0001382128284839583A683B78386E991E039
:103D0000918380830895CF93DF9300D000D01F92DA
:103D1000CDB7DEB7789484B5826084BD84B5816008
:103D200084BD85B5826085BD85B5816085BD809186
:103D30006E00816080936E001092810080918100FE
:103D400082608093810080918100816080938100F6
:103D5000809180008160809380008091B1008460B8
:103D60008093B1008091B00081608093B000809119
:103D70007A00846080937A0080917A0082608093D8
:103D80007A0080917A00816080937A0080917A0035
:103D9000806880937A001092C10061E086E00E9402
:103DA000211161E087E00E94211161E080E10E9421
:103DB000211161E081E10E94211161E086E00E9411
:103DC000F31060E087E00E94F31061E080E10E9460
:103DD000F31060E081E10E94F310E0910A07F09196
:103DE0000B0782E08083E0910607F09107071082BD
:103DF000E0910807F09109078FEC80831092120779
:103E0000E0910E07F0910F0786E08083E0910C07A8
:103E1000F0910D07808180618083E0910C07F09123
:103E20000D07808188608083E0910C07F0910D0779
:103E3000808180688083E0910C07F0910D0780817C
:103E40008F7D808389E097E00E946F1A88E090E080
:103E50000E94E923FC0110821182138212821582D2
:103E600014821782168290938C0680938B068DEDB8
:103E700096E00E946F1A1A8219828BEE9AE00197DF
:103E8000F1F71092AD061092AE061092D70610927E
:103E9000F9061092D50681E08093D4061092AF0601
:103EA00061E082E10E94F31061E083E10E94F3107F
:103EB0008091B9008E7F8093B9008091B9008D7F89
:103EC0008093B90088E48093B80085E48093BC00B7
:103ED00080E99FE090938A028093890281E99FE0C4
:103EE00090938802809387028EEB91E00E94801A63
:103EF00060E08FEE0E948E1A60E08FEE0E948E1AB4
:103F0000BE016E5F7F4F80E00E94B11A182F8111B1
:103F100027C0BE016F5F7F4F81E00E94B11A182F4A
:103F200081111EC08DEC91E00E941E1A6A8170E022
:103F300090E080E040E10E942B1A85ED91E00E9424
:103F40001E1A698170E090E080E040E10E942B1A27
:103F500084EA91E00E941E1A8A81803289F01FEF64
:103F600082ED96E00E946F1A612F70E090E080E091
:103F70004AE00E942B1A84EA91E00E941E1A22C095
:103F80008981863761F780EE91E00E94801A02EF06
:103F900010E058EAE52E52E0F52EE016F10651F059
:103FA000F80185919491682F892F0E948E1A0E5FD7
:103FB0001F4FF3CF60E08FEE0E948E1A80EF91E0EA
:103FC0000E94801A84EC96E00E946F1AA0908B06E3
:103FD000B0908C06D50116968D919C91892B09F095
:103FE000BAC083E890E00E94E9238C01FC011382AF
:103FF0001282E158FF4F81E29FE0918380833296E5
:10400000108231961082D8015C961C925C9782E7F0
:1040100091E08D939C937801B4E0EB0EF11CF801D4
:1040200015821482118E108A118A128A138A8FEFD8
:10403000828F868FB296C801C896DD24DA94D19219
:104040008E179F07E1F781EE92E1F8019187808753
:1040500080EB93E19387828783EB9BE1958784874D
:104060008EE497E19787868730E020E040E069E0C2
:10407000C7010E94E112F801E15BFF4F118210823B
:104080008BE29FE0D801D9969C938E93D8978BE8CA
:1040900092E0DD969C938E93DC9788E0DE968C937D
:1040A000DE97DF961C923D961082B096108281E0DA
:1040B00031968083319680838AE791E0F80193AF4F
:1040C00082AFC7010E94F413F801E55BFF4F108235
:1040D000329610823197D0823296D082D801DA9609
:1040E000ED91FC910280F381E02DC70109958EE8E6
:1040F0009FE0F801EF5AFF4F918380833E96108234
:1041000089E0F80183A78AE084A78CE085A7D50120
:1041100017961C930E9316970084F185E02D30E0DE
:1041200020E040E06AE0C7010995C7010E94611BD9
:10413000C7010E943C1B8111FBCF60E0C7010E94B8
:10414000D516D8011896ED91FC9130E020E040E0C2
:104150006BE0C701099581EB96E00E946F1AA09071
:104160008B06B0908C06F5018681978104960E949B
:10417000611BD50116966D907C907301B4E0EB0E37
:10418000F11C00E420E840E060E0C7010E94371421
:10419000882309F444C048EA842E42E0942E10E0BB
:1041A0006301EDE7CE0ED11CC30184589F4F9D8360
:1041B0008C83D6013C90B1E0BB8331101B8222245A
:1041C0002394210E022D20E8412F60E0C7010E94B8
:1041D00037148823F1F03401512C44244394F30123
:1041E0008491842199F1D6013C9200E021E0412F95
:1041F000652DC7010E94C8145394440C29F4FFEFA5
:104200006F1A7F0A4424439420E85212E8CFD60163
:104210003C92B0E18B0E911C122D103451F6F50139
:104220008681978104960E943C1B8111A2CF88EA67
:1042300096E00E946F1A19828981811110C0BE0117
:104240006F5F7F4F83E40E94B11AF6CFEC81FD814E
:1042500080818111D1CFEB81D601EC93C6CF61E093
:1042600087E00E94211161E086E00E94211160E058
:1042700087E00E94F31061E086E00E94F31020E4E2
:10428000722E05E010E0D12CC12C30E0A32E30E0DE
:10429000B32E8CE2582E90E3692E8AEE97E00E94AE
:1042A0006F1AE0908B06F0908C06C7010E94751C77
:1042B000D70116968D919C9104960E94271BF701B9
:1042C0008681978160EC72E104960E94FC15D7010B
:1042D00016968D919C91FC01EF57FF4F2AE02083A9
:1042E0003196508263E277E00E94990FF701868150
:1042F000978104960E94441768EE73E080E090E096
:104300000E947711912C812CD70114968D919C914C
:1043100015978816990608F03FC01296ED91FC910A
:10432000E80DF11D6491C7010E94731BF70186819E
:10433000978160EC72E104960E94FC15D7011696F5
:104340008D919C91FC01EF57FF4F10823196708246
:1043500027E3B9E08B1691040CF420E361E0680DCB
:10436000620F0E94920FF7018681978104960E9446
:104370004417D7018C91B8E38B9FB001781B1124AF
:1043800064527A4F072E000C880B990B0E9477110C
:10439000EFEF8E1A9E0AB8CF16968D919C910496D7
:1043A0000E94271BF7018681978160EC72E10496D9
:1043B0000E94FC15D70116968D919C91FC01EF5738
:1043C000FF4F28E22083319650826AE277E00E9414
:1043D000990FF7018681978104960E94441768EE31
:1043E00073E080E090E00E94771187ED97E00E94F3
:1043F0006F1AE0908B06F0908C06C7010E94751C26
:10440000312C912C812CD70114968D919C9115976C
:104410008816990608F09BC0B4E0B31508F4F6C0FE
:10442000F7018681978104960E94271BC801831992
:104430009109F9E18F9F402C1124D70116968D9197
:104440009C91642D04960E943215F7018681978114
:1044500060EC72E104960E94FC15D70116968D91CE
:104460009C91FC01EF57FF4F108231967082682DAE
:1044700027E3B9E08B1691040CF420E36F5F620F21
:104480000E94920FF7018681978104960E9444173B
:10449000D70116968D919C9104960E94271BF701D7
:1044A0008681978160E37DE004960E94FC15D70128
:1044B00016968D919C91FC01EF57FF4F60823196CB
:1044C0006082642D04960E943215D7011296ED91F8
:1044D000FC91E80DF11D449019822981211107C03A
:1044E000BE016F5F7F4F83E40E94B11AF6CFF701E0
:1044F00086819781421631F164E40E94920F222452
:104500002394D70116968D919C9104960E9444178E
:1045100068EE73E080E090E00E947711222071F055
:10452000642DC7010E94731B64EF71E080E090E08E
:104530000E9477113394B1E08B1A9108EFEF8E1A35
:104540009E0A61CF60E40E94920F212CDACFF4E042
:10455000F31508F45BC08C918F5F8C93E0918B0610
:10456000F0918C068081853008F0A7C08EE297E03C
:104570000E946F1AE0908B06F0908C06F7018681FE
:10458000978104960E94271BD70116968D919C91C6
:1045900060EC72E104960E94FC15F7018681978118
:1045A000FC01EF57FF4F108231962CE1208362EC23
:1045B00077E00E94990FD70116968D919C911797DD
:1045C000FC01EF57FF4F2EE62083319670826C91ED
:1045D0006F5C0E94920FF701868197816BEA7EE003
:1045E00004960E94FC15D70116968D919C91FC01B2
:1045F000EF57FF4F108231962CE320836EEA77E06D
:104600000E94990FF701868197818FC08AEC97E00D
:104610000E946F1AE0908B06F0908C06F70186815D
:10462000978104960E94271BD70116968D919C9125
:104630006BEA7EE004960E94FC15F7018681978163
:10464000FC01EF57FF4F1082319620E1208364EA8E
:1046500077E00E94990FD70116968D919C91FC01ED
:10466000EF57FF4F1082319620E2208364E977E014
:104670000E94990FF70186819781FC01EF57FF4F48
:1046800010823196608264E877E00E94990FD7012A
:1046900016968D919C9104960E94441768E873E1E8
:1046A00080E090E00E94771168EB7BE080E090E092
:1046B0000E947711F60109954FC08EE397E00E94A2
:1046C0006F1AE0908B06F0908C06D70116968D91AC
:1046D0009C9104960E94271BF701868197816BEAC3
:1046E0007EE004960E94FC15D70116968D919C9150
:1046F000FC01EF57FF4F1082319620E2208360E7E4
:1047000077E00E94990FF70186819781FC01EF57AE
:10471000FF4F108231962CE320836EE477E00E94F5
:10472000990FD70116968D919C9104960E9444177B
:1047300068E873E180E090E00E94771168EB7BE02D
:1047400080E090E00E947711E0918B06F0918C065A
:104750008081853008F0AECFA114B10409F49DCD5D
:104760000E942710882309F494CD0E94000091CD67
:10477000FC0105900020E9F7809590958E0F9F1F12
:104780000895A1E21A2EAA1BBB1BFD010DC0AA1F92
:10479000BB1FEE1FFF1FA217B307E407F50720F0AA
:1047A000A21BB30BE40BF50B661F771F881F991F25
:1047B0001A9469F760957095809590959B01AC016E
:1047C000BD01CF010895EE0FFF1F0590F491E02D7C
:1047D00009940F931F93CF93DF938230910510F4C8
:1047E00082E090E0E091A507F091A60730E020E09C
:1047F000B0E0A0E0309799F42115310509F44AC0E2
:10480000281B390B24303105D8F58A819B8161152D
:10481000710589F1FB0193838283FE0111C0408100
:1048200051810281138148175907E0F04817590751
:1048300099F4109761F012960C93129713961C93AB
:104840003296CF01DF91CF911F910F910895009380
:10485000A5071093A607F4CF2115310551F0421793
:10486000530738F0A901DB019A01BD01DF01F8010E
:10487000C1CFEF01F9CF9093A6078093A507CDCFC5
:10488000FE01E20FF31F8193919322503109398386
:104890002883D7CF2091A3073091A407232B41F47D
:1048A00020910201309103013093A4072093A307C4
:1048B00020910001309101012115310541F42DB7FE
:1048C0003EB74091040150910501241B350BE09146
:1048D000A307F091A407E217F307A0F42E1B3F0BE8
:1048E0002817390778F0AC014E5F5F4F2417350762
:1048F00048F04E0F5F1F5093A4074093A307819386
:1049000091939FCFF0E0E0E09CCFCF93DF930097AF
:10491000E9F0FC01329713821282A091A507B091B1
:10492000A607ED0130E020E01097A1F4208131814D
:10493000820F931F2091A3073091A40728173907EE
:1049400009F061C0F093A407E093A307DF91CF9132
:104950000895EA01CE17DF07E8F54A815B819E01E1
:1049600041155105B1F7E901FB83EA83499159915A
:10497000C40FD51FEC17FD0761F480819181029669
:10498000840F951FE90199838883828193819B839A
:104990008A83F0E0E0E012968D919C911397009746
:1049A000B9F52D913C911197CD010296820F931F7D
:1049B0002091A3073091A4072817390739F63097BB
:1049C00051F51092A6071092A507B093A407A093E3
:1049D000A307BCCFD383C28340815181840F951F2D
:1049E000C817D90761F44E5F5F4F88819981480FDE
:1049F000591F518340838A819B8193838283211530
:104A0000310509F0B0CFF093A607E093A5079ECF3C
:104A1000FD01DC01C0CF13821282D7CFDC0101C0BF
:0E4A20006D9341505040E0F70895F894FFCF99
:104A2E000000A707800004080C1815A015C019FF78
:104A3E001815A115C819FF1815AE19FF1815AF19BD
:104A4E00FF1815AE15D5168015A8163F15D31600EE
:104A5E001540158D16141520160015A115C815DA5A
:104A6E001612158116CF15D916F115DB1640152E17
:104A7E0015A415A619FF0001140A64643232000948
:104A8E003D0003042896100802028000400000003A
:104A9E0000000318DB171B1A1A1AF4135E14E8131E
:104AAE00000000005D10BD0FEA0FAA101B10F90FD9
:104ABE000D10000000002B12FE111B1ADB11120F3D
:104ACE00EB11DC110D0A005472616E736D69737314
:104ADE00696F6E206572726F722121210A00494E34
:104AEE0049542053454E534F522E2E2E004164648E
:104AFE007230203D002C20204164647231203D0034
:104B0E0077616B652D75702066696E6973682E000E
:104B1E0050616A3736323020696E697469616C692A
:104B2E007A652072656769737465722066696E694D
:064B3E00736865642E009F
:00000001FF
